{
  "contractName": "Products",
  "abi": [
    {
      "constant": true,
      "inputs": [
        {
          "name": "",
          "type": "uint256"
        }
      ],
      "name": "productsm",
      "outputs": [
        {
          "name": "manfacturer",
          "type": "string"
        },
        {
          "name": "retailer",
          "type": "string"
        },
        {
          "name": "pname",
          "type": "string"
        },
        {
          "name": "owner",
          "type": "string"
        },
        {
          "name": "pcode",
          "type": "uint256"
        }
      ],
      "payable": false,
      "stateMutability": "view",
      "type": "function",
      "signature": "0xc356aca4"
    },
    {
      "constant": false,
      "inputs": [
        {
          "name": "_manfacturer",
          "type": "string"
        },
        {
          "name": "_mcode",
          "type": "uint256"
        },
        {
          "name": "_pname",
          "type": "string"
        },
        {
          "name": "_pcode",
          "type": "uint256"
        }
      ],
      "name": "new_product",
      "outputs": [],
      "payable": false,
      "stateMutability": "nonpayable",
      "type": "function",
      "signature": "0xd6a7b472"
    },
    {
      "constant": false,
      "inputs": [
        {
          "name": "_manfacturer",
          "type": "string"
        },
        {
          "name": "_mcode",
          "type": "uint256"
        },
        {
          "name": "_retailer",
          "type": "string"
        },
        {
          "name": "_pcode",
          "type": "uint256"
        }
      ],
      "name": "to_retailer",
      "outputs": [],
      "payable": false,
      "stateMutability": "nonpayable",
      "type": "function",
      "signature": "0xf8662c66"
    },
    {
      "constant": false,
      "inputs": [
        {
          "name": "_retailer",
          "type": "string"
        },
        {
          "name": "_rcode",
          "type": "uint256"
        },
        {
          "name": "_customer",
          "type": "string"
        },
        {
          "name": "_pcode",
          "type": "uint256"
        }
      ],
      "name": "product_sale",
      "outputs": [],
      "payable": false,
      "stateMutability": "nonpayable",
      "type": "function",
      "signature": "0x4e4c03d8"
    },
    {
      "constant": true,
      "inputs": [
        {
          "name": "_name",
          "type": "string"
        },
        {
          "name": "_pcode",
          "type": "uint256"
        }
      ],
      "name": "verify",
      "outputs": [
        {
          "name": "",
          "type": "bool"
        }
      ],
      "payable": false,
      "stateMutability": "view",
      "type": "function",
      "signature": "0x58a40cc4"
    },
    {
      "constant": true,
      "inputs": [
        {
          "name": "a",
          "type": "string"
        },
        {
          "name": "b",
          "type": "string"
        }
      ],
      "name": "compareStrings",
      "outputs": [
        {
          "name": "",
          "type": "bool"
        }
      ],
      "payable": false,
      "stateMutability": "view",
      "type": "function",
      "signature": "0xbed34bba"
    },
    {
      "constant": false,
      "inputs": [
        {
          "name": "_name",
          "type": "string"
        },
        {
          "name": "_code",
          "type": "uint256"
        }
      ],
      "name": "add_manfacturer",
      "outputs": [],
      "payable": false,
      "stateMutability": "nonpayable",
      "type": "function",
      "signature": "0x992ea4b2"
    },
    {
      "constant": false,
      "inputs": [
        {
          "name": "_name",
          "type": "string"
        },
        {
          "name": "_code",
          "type": "uint256"
        }
      ],
      "name": "add_retailer",
      "outputs": [],
      "payable": false,
      "stateMutability": "nonpayable",
      "type": "function",
      "signature": "0x62a028ec"
    }
  ],
  "bytecode": "0x608060405234801561001057600080fd5b50611123806100206000396000f3fe60806040526004361061008d5763ffffffff7c01000000000000000000000000000000000000000000000000000000006000350416634e4c03d8811461009257806358a40cc4146101d857806362a028ec146102a1578063992ea4b214610356578063bed34bba1461040b578063c356aca414610545578063d6a7b47214610720578063f8662c6614610864575b600080fd5b34801561009e57600080fd5b506101d6600480360360808110156100b557600080fd5b8101906020810181356401000000008111156100d057600080fd5b8201836020820111156100e257600080fd5b8035906020019184600183028401116401000000008311171561010457600080fd5b91908080601f0160208091040260200160405190810160405280939291908181526020018383808284376000920191909152509295843595909490935060408101925060200135905064010000000081111561015f57600080fd5b82018360208201111561017157600080fd5b8035906020019184600183028401116401000000008311171561019357600080fd5b91908080601f01602080910402602001604051908101604052809392919081815260200183838082843760009201919091525092955050913592506109a8915050565b005b3480156101e457600080fd5b5061028d600480360360408110156101fb57600080fd5b81019060208101813564010000000081111561021657600080fd5b82018360208201111561022857600080fd5b8035906020019184600183028401116401000000008311171561024a57600080fd5b91908080601f0160208091040260200160405190810160405280939291908181526020018383808284376000920191909152509295505091359250610a77915050565b604080519115158252519081900360200190f35b3480156102ad57600080fd5b506101d6600480360360408110156102c457600080fd5b8101906020810181356401000000008111156102df57600080fd5b8201836020820111156102f157600080fd5b8035906020019184600183028401116401000000008311171561031357600080fd5b91908080601f0160208091040260200160405190810160405280939291908181526020018383808284376000920191909152509295505091359250610afd915050565b34801561036257600080fd5b506101d66004803603604081101561037957600080fd5b81019060208101813564010000000081111561039457600080fd5b8201836020820111156103a657600080fd5b803590602001918460018302840111640100000000831117156103c857600080fd5b91908080601f0160208091040260200160405190810160405280939291908181526020018383808284376000920191909152509295505091359250610b32915050565b34801561041757600080fd5b5061028d6004803603604081101561042e57600080fd5b81019060208101813564010000000081111561044957600080fd5b82018360208201111561045b57600080fd5b8035906020019184600183028401116401000000008311171561047d57600080fd5b91908080601f01602080910402602001604051908101604052809392919081815260200183838082843760009201919091525092959493602081019350359150506401000000008111156104d057600080fd5b8201836020820111156104e257600080fd5b8035906020019184600183028401116401000000008311171561050457600080fd5b91908080601f016020809104026020016040519081016040528093929190818152602001838380828437600092019190915250929550610b68945050505050565b34801561055157600080fd5b5061056f6004803603602081101561056857600080fd5b5035610c4f565b604051808060200180602001806020018060200186815260200185810385528a818151815260200191508051906020019080838360005b838110156105be5781810151838201526020016105a6565b50505050905090810190601f1680156105eb5780820380516001836020036101000a031916815260200191505b5085810384528951815289516020918201918b019080838360005b8381101561061e578181015183820152602001610606565b50505050905090810190601f16801561064b5780820380516001836020036101000a031916815260200191505b5085810383528851815288516020918201918a019080838360005b8381101561067e578181015183820152602001610666565b50505050905090810190601f1680156106ab5780820380516001836020036101000a031916815260200191505b50858103825287518152875160209182019189019080838360005b838110156106de5781810151838201526020016106c6565b50505050905090810190601f16801561070b5780820380516001836020036101000a031916815260200191505b50995050505050505050505060405180910390f35b34801561072c57600080fd5b506101d66004803603608081101561074357600080fd5b81019060208101813564010000000081111561075e57600080fd5b82018360208201111561077057600080fd5b8035906020019184600183028401116401000000008311171561079257600080fd5b91908080601f016020809104026020016040519081016040528093929190818152602001838380828437600092019190915250929584359590949093506040810192506020013590506401000000008111156107ed57600080fd5b8201836020820111156107ff57600080fd5b8035906020019184600183028401116401000000008311171561082157600080fd5b91908080601f0160208091040260200160405190810160405280939291908181526020018383808284376000920191909152509295505091359250610eb3915050565b34801561087057600080fd5b506101d66004803603608081101561088757600080fd5b8101906020810181356401000000008111156108a257600080fd5b8201836020820111156108b457600080fd5b803590602001918460018302840111640100000000831117156108d657600080fd5b91908080601f0160208091040260200160405190810160405280939291908181526020018383808284376000920191909152509295843595909490935060408101925060200135905064010000000081111561093157600080fd5b82018360208201111561094357600080fd5b8035906020019184600183028401116401000000008311171561096557600080fd5b91908080601f0160208091040260200160405190810160405280939291908181526020018383808284376000920191909152509295505091359250610fcd915050565b600083815260026020818152604092839020805484516001821615610100026000190190911693909304601f8101839004830284018301909452838352610a4793889392830182828015610a3d5780601f10610a1257610100808354040283529160200191610a3d565b820191906000526020600020905b815481529060010190602001808311610a2057829003601f168201915b5050505050610b68565b15610a71576000818152602081815260409091208351610a6f9260039092019185019061105c565b505b50505050565b60008181526020818152604080832060030180548251601f60026000196101006001861615020190931692909204918201859004850281018501909352808352610ae6938793929190830182828015610a3d5780601f10610a1257610100808354040283529160200191610a3d565b15610af357506001610af7565b5060005b92915050565b60008181526002602090815260409091208351610b1c9285019061105c565b5060008181526002602052604090206001015550565b60008181526001602090815260409091208351610b519285019061105c565b506000818152600160208190526040909120015550565b6000816040516020018082805190602001908083835b60208310610b9d5780518252601f199092019160209182019101610b7e565b6001836020036101000a03801982511681845116808217855250505050505090500191505060405160208183030381529060405280519060200120836040516020018082805190602001908083835b60208310610c0b5780518252601f199092019160209182019101610bec565b6001836020036101000a0380198251168184511680821785525050505050509050019150506040516020818303038152906040528051906020012014905092915050565b6000602081815291815260409081902080548251601f600260001961010060018616150201909316929092049182018590048502810185019093528083529092839190830182828015610ce35780601f10610cb857610100808354040283529160200191610ce3565b820191906000526020600020905b815481529060010190602001808311610cc657829003601f168201915b505050505090806001018054600181600116156101000203166002900480601f016020809104026020016040519081016040528092919081815260200182805460018160011615610100020316600290048015610d815780601f10610d5657610100808354040283529160200191610d81565b820191906000526020600020905b815481529060010190602001808311610d6457829003601f168201915b50505060028085018054604080516020601f6000196101006001871615020190941695909504928301859004850281018501909152818152959695945090925090830182828015610e135780601f10610de857610100808354040283529160200191610e13565b820191906000526020600020905b815481529060010190602001808311610df657829003601f168201915b5050505060038301805460408051602060026001851615610100026000190190941693909304601f8101849004840282018401909252818152949594935090830182828015610ea35780601f10610e7857610100808354040283529160200191610ea3565b820191906000526020600020905b815481529060010190602001808311610e8657829003601f168201915b5050505050908060040154905085565b60008381526001602081815260409283902080548451600294821615610100026000190190911693909304601f8101839004830284018301909452838352610f1e93889392830182828015610a3d5780601f10610a1257610100808354040283529160200191610a3d565b15610a715760008181526020818152604090912085516060928392610f4792909189019061105c565b506000838152602081815260409091208351610f6b9260019092019185019061105c565b506000838152602081815260409091208551610f8f9260029092019187019061105c565b506000838152602081815260409091208251610fb39260039092019184019061105c565b505050600081815260208190526040902060040155505050565b60008381526001602081815260409283902080548451600294821615610100026000190190911693909304601f810183900483028401830190945283835261103893889392830182828015610a3d5780601f10610a1257610100808354040283529160200191610a3d565b15610a71576000818152602081815260409091208351610a6f926001909201918501905b828054600181600116156101000203166002900490600052602060002090601f016020900481019282601f1061109d57805160ff19168380011785556110ca565b828001600101855582156110ca579182015b828111156110ca5782518255916020019190600101906110af565b506110d69291506110da565b5090565b6110f491905b808211156110d657600081556001016110e0565b9056fea165627a7a72305820fcce95f389d37fdbf80218e718f466bb793b5439df4fa8d8df979b24dba799bb0029",
  "source": "pragma solidity ^0.5.0;\r\n\r\ncontract Products {\r\n\r\n    struct products {\r\n        string manfacturer;\r\n        string retailer;\r\n        string pname;\r\n        string owner; \r\n        uint pcode;\r\n    }\r\n\r\n    struct retailers {\r\n        string rname;\r\n        uint rcode;\r\n    }\r\n\r\n    struct manfacturers {\r\n        string mname;\r\n        uint mcode;\r\n    }\r\n\r\n    mapping( uint => products) public productsm;\r\n    mapping (uint => manfacturers) manfacturersm;\r\n    mapping (uint => retailers) retailersm;\r\n\r\n    function new_product(string memory _manfacturer, uint _mcode, string memory _pname, uint _pcode) public {\r\n        \r\n        if( compareStrings( _manfacturer, manfacturersm[_mcode].mname)) {\r\n            string memory _retailer;\r\n            string memory _owner;\r\n            productsm[_pcode].manfacturer= _manfacturer;\r\n            productsm[_pcode].retailer=_retailer;\r\n            productsm[_pcode].pname= _pname;\r\n            productsm[_pcode].owner=_owner;\r\n            productsm[_pcode].pcode=_pcode;\r\n        }\r\n    }\r\n\r\n    function to_retailer(string memory _manfacturer, uint _mcode, string memory _retailer, uint _pcode) public {\r\n        if( compareStrings( _manfacturer, manfacturersm[_mcode].mname))\r\n            productsm[_pcode].retailer=_retailer;      \r\n    }\r\n\r\n    function product_sale( string memory _retailer, uint _rcode, string memory _customer, uint _pcode) public {\r\n        if( compareStrings( _retailer, retailersm[_rcode].rname)) {\r\n            productsm[_pcode].owner=_customer;\r\n        }\r\n    }\r\n\r\n    function verify(string memory _name, uint _pcode) public view returns(bool) {\r\n        if( compareStrings( _name, productsm[_pcode].owner))\r\n        return true;\r\n        return false;\r\n    }\r\n\r\n    function compareStrings(string memory a, string memory b) public view returns (bool) {\r\n    return (keccak256(abi.encodePacked((a))) == keccak256(abi.encodePacked((b))));\r\n    }\r\n\r\n    function add_manfacturer(string memory _name, uint _code) public {\r\n        manfacturersm[_code].mname=_name;\r\n        manfacturersm[_code].mcode=_code;\r\n    }\r\n\r\n    function add_retailer(string memory _name, uint _code) public {\r\n        retailersm[_code].rname=_name;\r\n        retailersm[_code].rcode=_code;\r\n    }\r\n}",
  "sourcePath": "C:/Users/siddh/Desktop/Anti_Product_Counterfeit/contracts/Products.sol",
  "compiler": {
    "name": "solc",
    "version": "0.5.0+commit.1d4f565a.Emscripten.clang"
  },
  "schemaVersion": "3.0.1",
  "updatedAt": "2021-12-24T04:50:36.440Z",
  "devdoc": {
    "methods": {}
  },
  "userdoc": {
    "methods": {}
  }
}