{
  "contractName": "Products",
  "abi": [
    {
      "constant": true,
      "inputs": [
        {
          "name": "",
          "type": "uint256"
        }
      ],
      "name": "manfacturersm",
      "outputs": [
        {
          "name": "mname",
          "type": "string"
        },
        {
          "name": "mcode",
          "type": "uint256"
        }
      ],
      "payable": false,
      "stateMutability": "view",
      "type": "function"
    },
    {
      "constant": true,
      "inputs": [
        {
          "name": "",
          "type": "uint256"
        }
      ],
      "name": "productsm",
      "outputs": [
        {
          "name": "manfacturer",
          "type": "string"
        },
        {
          "name": "retailer",
          "type": "string"
        },
        {
          "name": "pname",
          "type": "string"
        },
        {
          "name": "owner",
          "type": "string"
        },
        {
          "name": "pcode",
          "type": "uint256"
        }
      ],
      "payable": false,
      "stateMutability": "view",
      "type": "function"
    },
    {
      "constant": true,
      "inputs": [
        {
          "name": "",
          "type": "uint256"
        }
      ],
      "name": "retailersm",
      "outputs": [
        {
          "name": "rname",
          "type": "string"
        },
        {
          "name": "rcode",
          "type": "uint256"
        }
      ],
      "payable": false,
      "stateMutability": "view",
      "type": "function"
    },
    {
      "constant": false,
      "inputs": [
        {
          "name": "_manfacturer",
          "type": "string"
        },
        {
          "name": "_mcode",
          "type": "uint256"
        },
        {
          "name": "_pname",
          "type": "string"
        },
        {
          "name": "_pcode",
          "type": "uint256"
        }
      ],
      "name": "new_product",
      "outputs": [],
      "payable": false,
      "stateMutability": "nonpayable",
      "type": "function"
    },
    {
      "constant": false,
      "inputs": [
        {
          "name": "_manfacturer",
          "type": "string"
        },
        {
          "name": "_mcode",
          "type": "uint256"
        },
        {
          "name": "_retailer",
          "type": "string"
        },
        {
          "name": "_pcode",
          "type": "uint256"
        }
      ],
      "name": "to_retailer",
      "outputs": [],
      "payable": false,
      "stateMutability": "nonpayable",
      "type": "function"
    },
    {
      "constant": false,
      "inputs": [
        {
          "name": "_retailer",
          "type": "string"
        },
        {
          "name": "_rcode",
          "type": "uint256"
        },
        {
          "name": "_customer",
          "type": "string"
        },
        {
          "name": "_pcode",
          "type": "uint256"
        }
      ],
      "name": "product_sale",
      "outputs": [],
      "payable": false,
      "stateMutability": "nonpayable",
      "type": "function"
    },
    {
      "constant": true,
      "inputs": [
        {
          "name": "_name",
          "type": "string"
        },
        {
          "name": "_pcode",
          "type": "uint256"
        }
      ],
      "name": "verify",
      "outputs": [
        {
          "name": "",
          "type": "bool"
        }
      ],
      "payable": false,
      "stateMutability": "view",
      "type": "function"
    },
    {
      "constant": true,
      "inputs": [
        {
          "name": "a",
          "type": "string"
        },
        {
          "name": "b",
          "type": "string"
        }
      ],
      "name": "compareStrings",
      "outputs": [
        {
          "name": "",
          "type": "bool"
        }
      ],
      "payable": false,
      "stateMutability": "view",
      "type": "function"
    },
    {
      "constant": false,
      "inputs": [
        {
          "name": "_name",
          "type": "string"
        },
        {
          "name": "_code",
          "type": "uint256"
        }
      ],
      "name": "add_manfacturer",
      "outputs": [],
      "payable": false,
      "stateMutability": "nonpayable",
      "type": "function"
    },
    {
      "constant": false,
      "inputs": [
        {
          "name": "_name",
          "type": "string"
        },
        {
          "name": "_code",
          "type": "uint256"
        }
      ],
      "name": "add_retailer",
      "outputs": [],
      "payable": false,
      "stateMutability": "nonpayable",
      "type": "function"
    }
  ],
  "bytecode": "0x608060405234801561001057600080fd5b50611318806100206000396000f3fe6080604052600436106100a35763ffffffff7c01000000000000000000000000000000000000000000000000000000006000350416634e4c03d881146100a857806358a40cc4146101ee57806362a028ec146102b757806388ed00a81461036c578063992ea4b214610415578063bed34bba146104ca578063c356aca414610604578063d6a7b472146107df578063f8662c6614610923578063fad2dcfb14610a67575b600080fd5b3480156100b457600080fd5b506101ec600480360360808110156100cb57600080fd5b8101906020810181356401000000008111156100e657600080fd5b8201836020820111156100f857600080fd5b8035906020019184600183028401116401000000008311171561011a57600080fd5b91908080601f0160208091040260200160405190810160405280939291908181526020018383808284376000920191909152509295843595909490935060408101925060200135905064010000000081111561017557600080fd5b82018360208201111561018757600080fd5b803590602001918460018302840111640100000000831117156101a957600080fd5b91908080601f0160208091040260200160405190810160405280939291908181526020018383808284376000920191909152509295505091359250610a91915050565b005b3480156101fa57600080fd5b506102a36004803603604081101561021157600080fd5b81019060208101813564010000000081111561022c57600080fd5b82018360208201111561023e57600080fd5b8035906020019184600183028401116401000000008311171561026057600080fd5b91908080601f0160208091040260200160405190810160405280939291908181526020018383808284376000920191909152509295505091359250610b60915050565b604080519115158252519081900360200190f35b3480156102c357600080fd5b506101ec600480360360408110156102da57600080fd5b8101906020810181356401000000008111156102f557600080fd5b82018360208201111561030757600080fd5b8035906020019184600183028401116401000000008311171561032957600080fd5b91908080601f0160208091040260200160405190810160405280939291908181526020018383808284376000920191909152509295505091359250610be6915050565b34801561037857600080fd5b506103966004803603602081101561038f57600080fd5b5035610c1b565b6040518080602001838152602001828103825284818151815260200191508051906020019080838360005b838110156103d95781810151838201526020016103c1565b50505050905090810190601f1680156104065780820380516001836020036101000a031916815260200191505b50935050505060405180910390f35b34801561042157600080fd5b506101ec6004803603604081101561043857600080fd5b81019060208101813564010000000081111561045357600080fd5b82018360208201111561046557600080fd5b8035906020019184600183028401116401000000008311171561048757600080fd5b91908080601f0160208091040260200160405190810160405280939291908181526020018383808284376000920191909152509295505091359250610cbd915050565b3480156104d657600080fd5b506102a3600480360360408110156104ed57600080fd5b81019060208101813564010000000081111561050857600080fd5b82018360208201111561051a57600080fd5b8035906020019184600183028401116401000000008311171561053c57600080fd5b91908080601f016020809104026020016040519081016040528093929190818152602001838380828437600092019190915250929594936020810193503591505064010000000081111561058f57600080fd5b8201836020820111156105a157600080fd5b803590602001918460018302840111640100000000831117156105c357600080fd5b91908080601f016020809104026020016040519081016040528093929190818152602001838380828437600092019190915250929550610cf3945050505050565b34801561061057600080fd5b5061062e6004803603602081101561062757600080fd5b5035610dda565b604051808060200180602001806020018060200186815260200185810385528a818151815260200191508051906020019080838360005b8381101561067d578181015183820152602001610665565b50505050905090810190601f1680156106aa5780820380516001836020036101000a031916815260200191505b5085810384528951815289516020918201918b019080838360005b838110156106dd5781810151838201526020016106c5565b50505050905090810190601f16801561070a5780820380516001836020036101000a031916815260200191505b5085810383528851815288516020918201918a019080838360005b8381101561073d578181015183820152602001610725565b50505050905090810190601f16801561076a5780820380516001836020036101000a031916815260200191505b50858103825287518152875160209182019189019080838360005b8381101561079d578181015183820152602001610785565b50505050905090810190601f1680156107ca5780820380516001836020036101000a031916815260200191505b50995050505050505050505060405180910390f35b3480156107eb57600080fd5b506101ec6004803603608081101561080257600080fd5b81019060208101813564010000000081111561081d57600080fd5b82018360208201111561082f57600080fd5b8035906020019184600183028401116401000000008311171561085157600080fd5b91908080601f016020809104026020016040519081016040528093929190818152602001838380828437600092019190915250929584359590949093506040810192506020013590506401000000008111156108ac57600080fd5b8201836020820111156108be57600080fd5b803590602001918460018302840111640100000000831117156108e057600080fd5b91908080601f016020809104026020016040519081016040528093929190818152602001838380828437600092019190915250929550509135925061103e915050565b34801561092f57600080fd5b506101ec6004803603608081101561094657600080fd5b81019060208101813564010000000081111561096157600080fd5b82018360208201111561097357600080fd5b8035906020019184600183028401116401000000008311171561099557600080fd5b91908080601f016020809104026020016040519081016040528093929190818152602001838380828437600092019190915250929584359590949093506040810192506020013590506401000000008111156109f057600080fd5b820183602082011115610a0257600080fd5b80359060200191846001830284011164010000000083111715610a2457600080fd5b91908080601f0160208091040260200160405190810160405280939291908181526020018383808284376000920191909152509295505091359250611158915050565b348015610a7357600080fd5b5061039660048036036020811015610a8a57600080fd5b50356111eb565b600083815260026020818152604092839020805484516001821615610100026000190190911693909304601f8101839004830284018301909452838352610b3093889392830182828015610b265780601f10610afb57610100808354040283529160200191610b26565b820191906000526020600020905b815481529060010190602001808311610b0957829003601f168201915b5050505050610cf3565b15610b5a576000818152602081815260409091208351610b5892600390920191850190611251565b505b50505050565b60008181526020818152604080832060030180548251601f60026000196101006001861615020190931692909204918201859004850281018501909352808352610bcf938793929190830182828015610b265780601f10610afb57610100808354040283529160200191610b26565b15610bdc57506001610be0565b5060005b92915050565b60008181526002602090815260409091208351610c0592850190611251565b5060008181526002602052604090206001015550565b60016020818152600092835260409283902080548451600294821615610100026000190190911693909304601f8101839004830284018301909452838352928391830182828015610cad5780601f10610c8257610100808354040283529160200191610cad565b820191906000526020600020905b815481529060010190602001808311610c9057829003601f168201915b5050505050908060010154905082565b60008181526001602090815260409091208351610cdc92850190611251565b506000818152600160208190526040909120015550565b6000816040516020018082805190602001908083835b60208310610d285780518252601f199092019160209182019101610d09565b6001836020036101000a03801982511681845116808217855250505050505090500191505060405160208183030381529060405280519060200120836040516020018082805190602001908083835b60208310610d965780518252601f199092019160209182019101610d77565b6001836020036101000a0380198251168184511680821785525050505050509050019150506040516020818303038152906040528051906020012014905092915050565b6000602081815291815260409081902080548251601f600260001961010060018616150201909316929092049182018590048502810185019093528083529092839190830182828015610e6e5780601f10610e4357610100808354040283529160200191610e6e565b820191906000526020600020905b815481529060010190602001808311610e5157829003601f168201915b505050505090806001018054600181600116156101000203166002900480601f016020809104026020016040519081016040528092919081815260200182805460018160011615610100020316600290048015610f0c5780601f10610ee157610100808354040283529160200191610f0c565b820191906000526020600020905b815481529060010190602001808311610eef57829003601f168201915b50505060028085018054604080516020601f6000196101006001871615020190941695909504928301859004850281018501909152818152959695945090925090830182828015610f9e5780601f10610f7357610100808354040283529160200191610f9e565b820191906000526020600020905b815481529060010190602001808311610f8157829003601f168201915b5050505060038301805460408051602060026001851615610100026000190190941693909304601f810184900484028201840190925281815294959493509083018282801561102e5780601f106110035761010080835404028352916020019161102e565b820191906000526020600020905b81548152906001019060200180831161101157829003601f168201915b5050505050908060040154905085565b60008381526001602081815260409283902080548451600294821615610100026000190190911693909304601f81018390048302840183019094528383526110a993889392830182828015610b265780601f10610afb57610100808354040283529160200191610b26565b15610b5a57600081815260208181526040909120855160609283926110d2929091890190611251565b5060008381526020818152604090912083516110f692600190920191850190611251565b50600083815260208181526040909120855161111a92600290920191870190611251565b50600083815260208181526040909120825161113e92600390920191840190611251565b505050600081815260208190526040902060040155505050565b60008381526001602081815260409283902080548451600294821615610100026000190190911693909304601f81018390048302840183019094528383526111c393889392830182828015610b265780601f10610afb57610100808354040283529160200191610b26565b15610b5a576000818152602081815260409091208351610b5892600190920191850190611251565b600260208181526000928352604092839020805484516001821615610100026000190190911693909304601f8101839004830284018301909452838352928391830182828015610cad5780601f10610c8257610100808354040283529160200191610cad565b828054600181600116156101000203166002900490600052602060002090601f016020900481019282601f1061129257805160ff19168380011785556112bf565b828001600101855582156112bf579182015b828111156112bf5782518255916020019190600101906112a4565b506112cb9291506112cf565b5090565b6112e991905b808211156112cb57600081556001016112d5565b9056fea165627a7a723058203c8c5df1b7517d15f616896533373a2a4a9269c1bdf26b967130ff060f9476540029",
  "source": "pragma solidity ^0.5.0;\r\n\r\ncontract Products {\r\n\r\n    struct products {\r\n        string manfacturer;\r\n        string retailer;\r\n        string pname;\r\n        string owner; \r\n        uint pcode;\r\n    }\r\n\r\n    struct retailers {\r\n        string rname;\r\n        uint rcode;\r\n    }\r\n\r\n    struct manfacturers {\r\n        string mname;\r\n        uint mcode;\r\n    }\r\n\r\n    mapping( uint => products) public productsm;\r\n    mapping (uint => manfacturers) public manfacturersm;\r\n    mapping (uint => retailers) public retailersm;\r\n\r\n    function new_product(string memory _manfacturer, uint _mcode, string memory _pname, uint _pcode) public {\r\n        \r\n        if( compareStrings( _manfacturer, manfacturersm[_mcode].mname)) {\r\n            string memory _retailer;\r\n            string memory _owner;\r\n            productsm[_pcode].manfacturer= _manfacturer;\r\n            productsm[_pcode].retailer=_retailer;\r\n            productsm[_pcode].pname= _pname;\r\n            productsm[_pcode].owner=_owner;\r\n            productsm[_pcode].pcode=_pcode;\r\n        }\r\n    }\r\n\r\n    function to_retailer(string memory _manfacturer, uint _mcode, string memory _retailer, uint _pcode) public {\r\n        if( compareStrings( _manfacturer, manfacturersm[_mcode].mname))\r\n            productsm[_pcode].retailer=_retailer;      \r\n    }\r\n\r\n    function product_sale( string memory _retailer, uint _rcode, string memory _customer, uint _pcode) public {\r\n        if( compareStrings( _retailer, retailersm[_rcode].rname)) {\r\n            productsm[_pcode].owner=_customer;\r\n        }\r\n    }\r\n\r\n    function verify(string memory _name, uint _pcode) public view returns(bool) {\r\n        if( compareStrings( _name, productsm[_pcode].owner))\r\n        return true;\r\n        return false;\r\n    }\r\n\r\n    function compareStrings(string memory a, string memory b) public view returns (bool) {\r\n    return (keccak256(abi.encodePacked((a))) == keccak256(abi.encodePacked((b))));\r\n    }\r\n\r\n    function add_manfacturer(string memory _name, uint _code) public {\r\n        manfacturersm[_code].mname=_name;\r\n        manfacturersm[_code].mcode=_code;\r\n    }\r\n\r\n    function add_retailer(string memory _name, uint _code) public {\r\n        retailersm[_code].rname=_name;\r\n        retailersm[_code].rcode=_code;\r\n    }\r\n}",
  "sourcePath": "C:/Users/siddh/Desktop/Anti_Product_Counterfeit/contracts/Products.sol",
  "compiler": {
    "name": "solc",
    "version": "0.5.0+commit.1d4f565a.Emscripten.clang"
  },
  "schemaVersion": "3.0.1",
  "updatedAt": "2021-12-24T03:58:08.582Z",
  "devdoc": {
    "methods": {}
  },
  "userdoc": {
    "methods": {}
  }
}